{
  "contractName": "TodoList",
  "abi": [
    {
      "inputs": [],
      "payable": false,
      "stateMutability": "nonpayable",
      "type": "constructor"
    },
    {
      "anonymous": false,
      "inputs": [
        {
          "indexed": false,
          "internalType": "uint256",
          "name": "id",
          "type": "uint256"
        },
        {
          "indexed": false,
          "internalType": "bool",
          "name": "completed",
          "type": "bool"
        }
      ],
      "name": "TaskCompleted",
      "type": "event"
    },
    {
      "anonymous": false,
      "inputs": [
        {
          "indexed": false,
          "internalType": "uint256",
          "name": "id",
          "type": "uint256"
        },
        {
          "indexed": false,
          "internalType": "string",
          "name": "details",
          "type": "string"
        },
        {
          "indexed": false,
          "internalType": "bool",
          "name": "completed",
          "type": "bool"
        }
      ],
      "name": "TaskCreated",
      "type": "event"
    },
    {
      "constant": true,
      "inputs": [
        {
          "internalType": "uint256",
          "name": "",
          "type": "uint256"
        }
      ],
      "name": "tasks",
      "outputs": [
        {
          "internalType": "uint256",
          "name": "id",
          "type": "uint256"
        },
        {
          "internalType": "string",
          "name": "details",
          "type": "string"
        },
        {
          "internalType": "bool",
          "name": "completed",
          "type": "bool"
        }
      ],
      "payable": false,
      "stateMutability": "view",
      "type": "function"
    },
    {
      "constant": true,
      "inputs": [],
      "name": "todoCount",
      "outputs": [
        {
          "internalType": "uint256",
          "name": "",
          "type": "uint256"
        }
      ],
      "payable": false,
      "stateMutability": "view",
      "type": "function"
    },
    {
      "constant": false,
      "inputs": [
        {
          "internalType": "string",
          "name": "_details",
          "type": "string"
        }
      ],
      "name": "addTask",
      "outputs": [],
      "payable": false,
      "stateMutability": "nonpayable",
      "type": "function"
    },
    {
      "constant": false,
      "inputs": [
        {
          "internalType": "uint256",
          "name": "_id",
          "type": "uint256"
        }
      ],
      "name": "toggleCompleted",
      "outputs": [],
      "payable": false,
      "stateMutability": "nonpayable",
      "type": "function"
    }
  ],
  "bytecode": "0x60806040526000805534801561001457600080fd5b506100596040518060400160405280600c81526020017f496e697469616c205461736b000000000000000000000000000000000000000081525061005e60201b60201c565b610248565b6000808154809291906001019190505550604051806060016040528060005481526020018281526020016000151581525060016000805481526020019081526020016000206000820151816000015560208201518160010190805190602001906100c99291906101a3565b5060408201518160020160006101000a81548160ff0219169083151502179055509050507f05d0fb833127fc08168556d0e7ca9554fc3f6bc843b3b7d2bf1c35aea6bab660600054826000604051808481526020018060200183151515158152602001828103825284818151815260200191508051906020019080838360005b83811015610164578082015181840152602081019050610149565b50505050905090810190601f1680156101915780820380516001836020036101000a031916815260200191505b5094505050505060405180910390a150565b828054600181600116156101000203166002900490600052602060002090601f016020900481019282601f106101e457805160ff1916838001178555610212565b82800160010185558215610212579182015b828111156102115782518255916020019190600101906101f6565b5b50905061021f9190610223565b5090565b61024591905b80821115610241576000816000905550600101610229565b5090565b90565b6106d5806102576000396000f3fe608060405234801561001057600080fd5b506004361061004c5760003560e01c8063455f502414610051578063672385621461007f5780638d9776721461013a578063fe0dee17146101f3575b600080fd5b61007d6004803603602081101561006757600080fd5b8101908080359060200190929190505050610211565b005b6101386004803603602081101561009557600080fd5b81019080803590602001906401000000008111156100b257600080fd5b8201836020820111156100c457600080fd5b803590602001918460018302840111640100000000831117156100e657600080fd5b91908080601f016020809104026020016040519081016040528093929190818152602001838380828437600081840152601f19601f8201169050808301925050505050505091929192905050506103be565b005b6101666004803603602081101561015057600080fd5b8101908080359060200190929190505050610503565b604051808481526020018060200183151515158152602001828103825284818151815260200191508051906020019080838360005b838110156101b657808201518184015260208101905061019b565b50505050905090810190601f1680156101e35780820380516001836020036101000a031916815260200191505b5094505050505060405180910390f35b6101fb6105d2565b6040518082815260200191505060405180910390f35b6102196105d8565b6001600083815260200190815260200160002060405180606001604052908160008201548152602001600182018054600181600116156101000203166002900480601f0160208091040260200160405190810160405280929190818152602001828054600181600116156101000203166002900480156102da5780601f106102af576101008083540402835291602001916102da565b820191906000526020600020905b8154815290600101906020018083116102bd57829003601f168201915b505050505081526020016002820160009054906101000a900460ff1615151515815250509050806040015115816040019015159081151581525050806001600084815260200190815260200160002060008201518160000155602082015181600101908051906020019061034f9291906105fb565b5060408201518160020160006101000a81548160ff0219169083151502179055509050507fe21fa966ca5cd02748c0752352d18c48165e61cb55b4c29cccf924b5a95fcff182826040015160405180838152602001821515151581526020019250505060405180910390a15050565b6000808154809291906001019190505550604051806060016040528060005481526020018281526020016000151581525060016000805481526020019081526020016000206000820151816000015560208201518160010190805190602001906104299291906105fb565b5060408201518160020160006101000a81548160ff0219169083151502179055509050507f05d0fb833127fc08168556d0e7ca9554fc3f6bc843b3b7d2bf1c35aea6bab660600054826000604051808481526020018060200183151515158152602001828103825284818151815260200191508051906020019080838360005b838110156104c45780820151818401526020810190506104a9565b50505050905090810190601f1680156104f15780820380516001836020036101000a031916815260200191505b5094505050505060405180910390a150565b6001602052806000526040600020600091509050806000015490806001018054600181600116156101000203166002900480601f0160208091040260200160405190810160405280929190818152602001828054600181600116156101000203166002900480156105b55780601f1061058a576101008083540402835291602001916105b5565b820191906000526020600020905b81548152906001019060200180831161059857829003601f168201915b5050505050908060020160009054906101000a900460ff16905083565b60005481565b604051806060016040528060008152602001606081526020016000151581525090565b828054600181600116156101000203166002900490600052602060002090601f016020900481019282601f1061063c57805160ff191683800117855561066a565b8280016001018555821561066a579182015b8281111561066957825182559160200191906001019061064e565b5b509050610677919061067b565b5090565b61069d91905b80821115610699576000816000905550600101610681565b5090565b9056fea265627a7a72315820e7e73109aa919a7bba18a4f93cab8375397d4b864503087e335cce1eec71f06b64736f6c63430005100032",
  "source": "pragma solidity ^0.5.0; // Declare Solidity language and version\n\ncontract TodoList { // Declare the smart contract\n    // Code goes here\n    uint public todoCount = 0; // Use uint instead of int because todoCount should never be a negative number, declared public\n\n    event TaskCreated( // DOCUMENT THIS\n        uint id, // DOCUMENT THIS\n        string details, // DOCUMENT THIS\n        bool completed // DOCUMENT THIS\n    );\n\n    event TaskCompleted( // DOCUMENT THIS\n        uint id, // DOCUMENT THIS\n        bool completed // DOCUMENT THIS\n    );\n\n    constructor() public { // Constructor function to run on contract deployment\n        addTask(\"Initial Task\"); // Put an item in the list for first run\n    }\n\n    struct Task { // Define the struct data types for our tasks\n        uint id; // Task ID - uint because it shouldn't be negative\n        string details; // The task details\n        bool completed; // Is the task completed? True/False\n    }\n\n    mapping(uint => Task) public tasks;  // Use mapping to create the array\n\n    function addTask(string memory _details) public { // Function to create a new task\n        todoCount ++; // Increment the counter\n        tasks[todoCount] = Task(todoCount, _details, false); // Create task with new ID, the content and set completed to false\n        emit TaskCreated(todoCount, _details, false); // DOCUMENT THIS\n    }\n\n    function toggleCompleted(uint _id) public { // Function to change bool completed from True to False and False to True\n        Task memory _task = tasks[_id]; // DOCUMENT THIS\n        _task.completed =!_task.completed; // DOCUMENT THIS\n        tasks[_id] = _task; // DOCUMENT THIS\n        emit TaskCompleted(_id, _task.completed); // DOCUMENT THIS\n    }\n\n}\n",
  "sourcePath": "/Users/john/Projects/solidity-todo/contracts/TodoList.sol",
  "compiler": {
    "name": "solc",
    "version": "0.5.16+commit.9c3226ce.Emscripten.clang"
  },
  "schemaVersion": "3.1.0",
  "updatedAt": "2020-05-28T14:29:34.531Z",
  "networkType": "ethereum",
  "devdoc": {
    "methods": {}
  },
  "userdoc": {
    "methods": {}
  }
}